:020000040800F2
:1000000000280020E9120008791200087F12000879
:10001000851200088B1200089112000800000000F1
:10002000000000000000000000000000971200081F
:10003000A312000800000000AF120008BB12000865
:100040003113000831130008311300083113000880
:100050003113000831130008311300083113000870
:100060003113000831130008311300083113000860
:100070003113000831130008311300083113000850
:100080003113000831130008311300083113000840
:100090003113000831130008311300083113000830
:1000A0003113000831130008311300083113000820
:1000B000C9120008311300080000000031130008C5
:1000C0003113000800000000000000003113000898
:1000D0000000000031130008311300080000000088
:1000E000311300083113000831130008000000002C
:1000F0000000000000000000000000000000000000
:0C01000000000000000000005FF808F1A3
:10010C0010B5054C237833B9044B13B10448AFF345
:10011C0000800123237010BD40000020000000006F
:10012C001829000808B5034B1BB103490348AFF36A
:10013C00008008BD000000004400002018290008C1
:10014C0080B582B000AF78607B68072B00F2148317
:10015C0001A252F823F000BF8501000843020008F9
:10016C0001030008BF0300088504000843050008CC
:10017C0001060008BF06000800220421BC4801F05B
:10018C00BDFB01220821BA4801F0B8FB01224FF453
:10019C008061B74801F0B2FB01224FF40061B44812
:1001AC0001F0ACFB01224FF48051B14801F0A6FBE9
:1001BC0001224FF40051AE4801F0A0FB01224FF494
:1001CC008041AB4801F09AFB01224FF40041A84852
:1001DC0001F094FB00224FF48071A64801F08EFBD5
:1001EC0000224FF40071A34801F088FB00224FF469
:1001FC008061A04801F082FB00224FF400619D4811
:10020C0001F07CFB00224FF480519A4801F076FB00
:10021C0000224FF40051974801F070FB00224FF47C
:10022C008041944801F06AFB00224FF40041914850
:10023C0001F064FBFFE2012204218D4801F05EFB1A
:10024C00002208218A4801F059FB01224FF48061F9
:10025C00874801F053FB01224FF40061844801F000
:10026C004DFB01224FF48051814801F047FB0122E4
:10027C004FF400517E4801F041FB01224FF48041C4
:10028C007B4801F03BFB01224FF40041784801F020
:10029C0035FB00224FF48071764801F02FFB0022D1
:1002AC004FF40071734801F029FB00224FF4806178
:1002BC00704801F023FB00224FF400616D4801F0FF
:1002CC001DFB00224FF480516A4801F017FB0022FD
:1002DC004FF40051674801F011FB00224FF48041AC
:1002EC00644801F00BFB00224FF40041614801F01F
:1002FC0005FBA0E2012204215D4801F0FFFA012276
:10030C0008215B4801F0FAFA00224FF4806158484A
:10031C0001F0F4FA01224FF40061554801F0EEFAB5
:10032C0001224FF48051524801F0E8FA01224FF4B7
:10033C0000514F4801F0E2FA01224FF480414C4841
:10034C0001F0DCFA01224FF40041494801F0D6FAE1
:10035C0000224FF48071474801F0D0FA00224FF48C
:10036C000071444801F0CAFA00224FF48061414800
:10037C0001F0C4FA00224FF400613E4801F0BEFACD
:10038C0000224FF480513B4801F0B8FA00224FF4A0
:10039C000051384801F0B2FA00224FF48041354840
:1003AC0001F0ACFA00224FF40041324801F0A6FAF9
:1003BC0041E2012204212E4801F0A0FA0122082179
:1003CC002B4801F09BFA01224FF48061284801F080
:1003DC0095FA00224FF40061254801F08FFA0122B2
:1003EC004FF48051224801F089FA01224FF4005158
:1003FC001F4801F083FA01224FF480411C4801F0A0
:10040C007DFA01224FF40041194801F077FA0022DD
:10041C004FF48071174801F071FA00224FF400710B
:10042C00144801F06BFA00224FF48061114801F07E
:10043C0065FA00224FF400610E4801F05FFA0022C9
:10044C004FF480510B4801F059FA00224FF400513F
:10045C00084801F053FA00224FF48041054801F09E
:10046C004DFA00224FF40041024801F047FAE2E154
:10047C0000080140000C014001220421BC4801F09D
:10048C003DFA01220821BA4801F038FA01224FF452
:10049C008061B74801F032FA01224FF40061B44890
:1004AC0001F02CFA00224FF48051B14801F026FAE9
:1004BC0001224FF40051AE4801F020FA01224FF412
:1004CC008041AB4801F01AFA01224FF40041A848D0
:1004DC0001F014FA00224FF48071A64801F00EFAD4
:1004EC0000224FF40071A34801F008FA00224FF4E7
:1004FC008061A04801F002FA00224FF400619D488F
:10050C0001F0FCF900224FF480519A4801F0F6F901
:10051C0000224FF40051974801F0F0F900224FF4FB
:10052C008041944801F0EAF900224FF400419148CF
:10053C0001F0E4F97FE1012204218D4801F0DEF99C
:10054C00012208218A4801F0D9F901224FF4806177
:10055C00874801F0D3F901224FF40061844801F07F
:10056C00CDF901224FF48051814801F0C7F90022E6
:10057C004FF400517E4801F0C1F901224FF4804143
:10058C007B4801F0BBF901224FF40041784801F09F
:10059C00B5F900224FF48071764801F0AFF90022D2
:1005AC004FF40071734801F0A9F900224FF48061F7
:1005BC00704801F0A3F900224FF400616D4801F07E
:1005CC009DF900224FF480516A4801F097F90022FE
:1005DC004FF40051674801F091F900224FF480412B
:1005EC00644801F08BF900224FF40041614801F09E
:1005FC0085F920E1012204215D4801F07FF90122F7
:10060C0008215B4801F07AF901224FF480615848C7
:10061C0001F074F901224FF40061554801F06EF9B4
:10062C0001224FF48051524801F068F901224FF435
:10063C0000514F4801F062F900224FF480414C48C0
:10064C0001F05CF901224FF40041494801F056F9E0
:10065C0000224FF48071474801F050F900224FF40A
:10066C000071444801F04AF900224FF4806141487E
:10067C0001F044F900224FF400613E4801F03EF9CC
:10068C0000224FF480513B4801F038F900224FF41E
:10069C000051384801F032F900224FF480413548BE
:1006AC0001F02CF900224FF40041324801F026F9F8
:1006BC00C1E0012204212E4801F020F90122082179
:1006CC002B4801F01BF901224FF48061284801F0FE
:1006DC0015F901224FF40061254801F00FF90122B0
:1006EC004FF48051224801F009F901224FF40051D6
:1006FC001F4801F003F901224FF480411C4801F01E
:10070C00FDF800224FF40041194801F0F7F80022DF
:10071C004FF48071174801F0F1F800224FF400718A
:10072C00144801F0EBF800224FF48061114801F0FD
:10073C00E5F800224FF400610E4801F0DFF80022CA
:10074C004FF480510B4801F0D9F800224FF40051BE
:10075C00084801F0D3F800224FF48041054801F01D
:10076C00CDF800224FF40041024801F0C7F862E0D6
:10077C0000080140000C014001220421304801F026
:10078C00BDF8012208212E4801F0B8F801224FF4DF
:10079C0080612B4801F0B2F801224FF40061284827
:1007AC0001F0ACF801224FF48051254801F0A6F875
:1007BC0001224FF40051224801F0A0F801224FF41D
:1007CC0080411F4801F09AF801224FF400411C4867
:1007DC0001F094F800224FF480711A4801F08EF861
:1007EC0000224FF40071174801F088F800224FF4F2
:1007FC008061144801F082F800224FF40061114826
:10080C0001F07CF800224FF480510E4801F076F88C
:10081C0000224FF400510B4801F070F800224FF405
:10082C008041084801F06AF800224FF40041054865
:10083C0001F064F800BF00BF0837BD4680BD00BFA3
:10084C0000080140000C014080B58AB000AF786010
:10085C007B68072B00F2EC8201A252F823F000BF58
:10086C008D0800083D090008EF090008A10A0008DE
:10087C00530B0008170C0008C90C00087B0D00086E
:10088C0000237B6222E0BC4A7B6A5B0113441B6839
:10089C00002B0CD1B94A7B6A52F82300B84A7B6A08
:1008AC0032F813300022194601F028F80BE0B34A55
:1008BC007B6A52F82300B24A7B6A32F81330012269
:1008CC00194601F01BF87B6A01337B627B6A072BAC
:1008DC00D9DD00220421AB4801F010F801220821D7
:1008EC00A84801F00BF801224FF48061A54801F0F3
:1008FC0005F801224FF40061A24800F0FFFF01222D
:10090C004FF480519F4800F0F9FF01224FF4005141
:10091C009C4800F0F3FF01224FF48041994800F00D
:10092C00EDFF01224FF40041964800F0E7FFDEE2B4
:10093C0000233B6223E0904A3B6A5B01134404337F
:10094C001B68002B0CD18D4A3B6A52F823008C4A51
:10095C003B6A32F813300022194600F0CFFF0BE04F
:10096C00864A3B6A52F82300854A3B6A32F81330B8
:10097C000122194600F0C2FF3B6A01333B623B6A1D
:10098C00072BD8DD012204217E4800F0B7FF00229E
:10099C0008217C4800F0B2FF01224FF480617948B5
:1009AC0000F0ACFF01224FF40061764800F0A6FF86
:1009BC0001224FF48051734800F0A0FF01224FF444
:1009CC000051704800F09AFF01224FF480416D48AD
:1009DC0000F094FF01224FF400416A4800F08EFFB2
:1009EC0085E20023FB6123E0634AFB695B0113444E
:1009FC0008331B68002B0CD1604AFB6952F82300AA
:100A0C005F4AFB6932F813300022194600F076FF7A
:100A1C000BE05A4AFB6952F82300594AFB6932F839
:100A2C0013300122194600F069FFFB690133FB61A9
:100A3C00FB69072BD8DD01220421524800F05EFF30
:100A4C00012208214F4800F059FF00224FF4806129
:100A5C004C4800F053FF01224FF40061494800F06C
:100A6C004DFF01224FF48051464800F047FF012210
:100A7C004FF40051434800F041FF01224FF48041F4
:100A8C00404800F03BFF01224FF400413D4800F08C
:100A9C0035FF2CE20023BB6123E0374ABB695B01C5
:100AAC0013440C331B68002B0CD1344ABB6952F82D
:100ABC002300334ABB6932F813300022194600F088
:100ACC001DFF0BE02D4ABB6952F823002C4ABB6971
:100ADC0032F813300122194600F010FFBB690133C4
:100AEC00BB61BB69072BD8DD01220421254800F02E
:100AFC0005FF01220821234800F000FF01224FF4DA
:100B0C008061204800F0FAFE00224FF400611D487D
:100B1C0000F0F4FE01224FF480511A4800F0EEFE72
:100B2C0001224FF40051174800F0E8FE01224FF467
:100B3C008041144800F0E2FE01224FF400411148BC
:100B4C0000F0DCFED3E100237B612CE00A4A7B69D8
:100B5C005B01134410331B68002B15D1074A7B69CA
:100B6C0052F82300064A7B6932F8133000221946EA
:100B7C0000F0C4FE14E000BF302900080000002083
:100B8C002000002000080140A54A7B6952F8230090
:100B9C00A44A7B6932F813300122194600F0AEFEEC
:100BAC007B6901337B617B69072BCFDD012204213B
:100BBC009D4800F0A3FE012208219B4800F09EFEF8
:100BCC0001224FF48061984800F098FE01224FF406
:100BDC000061954800F092FE00224FF4805192483B
:100BEC0000F08CFE01224FF400518F4800F086FE7D
:100BFC0001224FF480418C4800F080FE01224FF41A
:100C0C000041894800F07AFE71E100233B6123E04A
:100C1C00864A3B695B01134414331B68002B0CD1CF
:100C2C007F4A3B6952F823007E4A3B6932F8133005
:100C3C000022194600F062FE0BE0794A3B6952F83B
:100C4C002300784A3B6932F813300122194600F030
:100C5C0055FE3B6901333B613B69072BD8DD012213
:100C6C000421714800F04AFE012208216E4800F070
:100C7C0045FE01224FF480616B4800F03FFE0122DB
:100C8C004FF40061684800F039FE01224FF48051A6
:100C9C00654800F033FE00224FF40051624800F02A
:100CAC002DFE01224FF480415F4800F027FE012207
:100CBC004FF400415C4800F021FE18E10023FB607A
:100CCC0023E05A4AFB685B01134418331B68002B62
:100CDC000CD1534AFB6852F82300524AFB6832F895
:100CEC0013300022194600F009FE0BE04C4AFB6859
:100CFC0052F823004B4AFB6832F813300122194694
:100D0C0000F0FCFDFB680133FB60FB68072BD8DDB2
:100D1C0001220421444800F0F1FD0122082142483F
:100D2C0000F0ECFD01224FF480613F4800F0E6FD3D
:100D3C0001224FF400613C4800F0E0FD01224FF429
:100D4C008051394800F0DAFD01224FF40051364849
:100D5C0000F0D4FD00224FF48041334800F0CEFD6A
:100D6C0001224FF40041304800F0C8FDBFE00023E1
:100D7C00BB6023E02D4ABB685B0113441C331B682A
:100D8C00002B0CD1264ABB6852F82300254ABB68BD
:100D9C0032F813300022194600F0B0FD0BE0204A67
:100DAC00BB6852F823001F4ABB6832F8133001228B
:100DBC00194600F0A3FDBB680133BB60BB68072B71
:100DCC00D8DD01220421184800F098FD01220821E9
:100DDC00154800F093FD01224FF48061124800F099
:100DEC008DFD01224FF400610F4800F087FD0122B8
:100DFC004FF480510C4800F081FD01224FF400515A
:100E0C00094800F07BFD01224FF48041064800F0B8
:100E1C0075FD00224FF40041034800F06FFD66E0C1
:100E2C0000000020200000200008014030290008AC
:100E3C0001220421304800F061FD012208212E48D6
:100E4C0000F05CFD01224FF480612B4800F056FD50
:100E5C0001224FF40061284800F050FD01224FF4AC
:100E6C008051254800F04AFD01224FF400512248E0
:100E7C0000F044FD01224FF480411F4800F03EFD7C
:100E8C0001224FF400411C4800F038FD00224FF4C1
:100E9C0080711A4800F032FD00224FF4007117489F
:100EAC0000F02CFD00224FF48061144800F026FD68
:100EBC0000224FF40061114800F020FD00224FF495
:100ECC0080510E4800F01AFD00224FF400510B48DF
:100EDC0000F014FD00224FF48041084800F00EFD94
:100EEC0000224FF40041054800F008FD00BF00BF90
:100EFC002837BD4680BD00BF00080140000C0140F2
:100F0C0080B483B000AF7860074B1B687A6892FBA3
:100F1C00F3F3064A1360064B00221A6000BF0C372D
:100F2C00BD4680BC704700BF300000205C00002034
:100F3C006000002080B400AF094B1B68002B04DD5F
:100F4C00074B1B68013B064A1360054B1B68002BC3
:100F5C0002D1044B01221A6000BFBD4680BC704711
:100F6C005C0000206000002080B584B000AF00F071
:100F7C00DBF900F037F800F0BDF800F06FF8174817
:100F8C0001F000F90A20FFF7BBFF0023FB600023F0
:100F9C00BB6001237B60124B1B68012BFBD17B6870
:100FAC00012B0BD1FB685A1CFA601846FFF7C8F8E6
:100FBC00FB68082B0DD100237B600AE0BB685A1C30
:100FCC00BA601846FFF740FCBB68082B01D1002320
:100FDC00BB600A20FFF794FFDDE700BF6400002030
:100FEC006000002080B590B000AF07F118032822F4
:100FFC000021184601F082FC3B1D00221A605A6049
:10100C009A60DA601A610223BB610123BB62102370
:10101C00FB6200237B6307F11803184600F086FC83
:10102C000346002B01D000F0C5F80F237B60002392
:10103C00BB600023FB6000233B6100237B613B1DF5
:10104C000021184600F0F2FE0346002B01D000F000
:10105C00B1F800BF4037BD4680BD000080B586B0FA
:10106C0000AF07F1080300221A605A609A60DA6038
:10107C003B4600221A605A601D4B4FF080421A60AA
:10108C001B4B09225A601A4B00229A60184B41F6EE
:10109C003F72DA60164B00221A61154B00229A61DE
:1010AC00134801F01FF80346002B01D000F082F822
:1010BC004FF48053BB6007F1080319460C4801F04C
:1010CC00B5F90346002B01D000F074F800233B6007
:1010DC0000237B603B461946054801F081FB034623
:1010EC00002B01D000F066F800BF1837BD4680BD5C
:1010FC006400002080B586B000AF07F10803002221
:10110C001A605A609A60DA60224B9B69214A43F05C
:10111C00040393611F4B9B6903F004037B607B68A2
:10112C001C4B9B691B4A43F008039361194B9B6949
:10113C0003F008033B603B6800224FF6FC71164835
:10114C0000F0DCFB00224FF67F71144800F0D6FB58
:10115C004FF6FC73BB600123FB6000233B61022351
:10116C007B6107F1080319460B4800F04DFA4FF666
:10117C007F73BB600123FB6000233B6102237B6117
:10118C0007F108031946054800F03EFA00BF18376E
:10119C00BD4680BD0010024000080140000C01401B
:1011AC0080B582B000AF7860FFF7C4FE00BF08378F
:1011BC00BD4680BD80B400AF72B600BFFEE7000034
:1011CC0080B485B000AF154B9B69144A43F0010302
:1011DC009361124B9B6903F00103BB60BB680F4B1F
:1011EC00DB690E4A43F08053D3610C4BDB6903F08F
:1011FC0080537B607B680A4B5B68FB60FB6823F069
:10120C00E063FB60FB6843F08063FB60044AFB68AF
:10121C00536000BF1437BD4680BC704700100240BD
:10122C000000014080B584B000AF78607B681B681B
:10123C00B3F1804F13D10C4BDB690B4A43F0010324
:10124C00D361094BDB6903F00103FB60FB680022EF
:10125C0000211C2000F0A1F91C2000F0BAF900BFFD
:10126C001037BD4680BD00BF0010024080B400AFF7
:10127C00FEE780B400AFFEE780B400AFFEE780B4B9
:10128C0000AFFEE780B400AFFEE780B400AF00BF54
:10129C00BD4680BC704780B400AF00BFBD4680BC6B
:1012AC00704780B400AF00BFBD4680BC704780B5AE
:1012BC0000AF00F07FF800BF80BD000080B500AF2C
:1012CC00024800F0ABFF00BF80BD00BF64000020EF
:1012DC0080B400AF00BFBD4680BC7047FFF7F8FF7D
:1012EC000B480C490C4A002302E0D458C450043378
:1012FC00C4188C42F9D3094A094C002301E013604D
:10130C000432A242FBD301F0D5FAFFF72DFE704751
:10131C0000000020400000205C2A00084000002053
:10132C00B0000020FEE7000080B500AF084B1B6842
:10133C00074A43F010031360032000F023F90F2039
:10134C0000F008F8FFF73CFF0023184680BD00BFF3
:10135C000020024080B582B000AF7860124B1A6852
:10136C00124B1B7819464FF47A73B3FBF1F3B2FBB3
:10137C00F3F3184600F03BF90346002B01D0012390
:10138C000EE07B680F2B0AD8002279684FF0FF30F3
:10139C0000F003F9064A7B681360002300E0012388
:1013AC0018460837BD4680BD340000203C000020A4
:1013BC003800002080B400AF054B1B781A46054B53
:1013CC001B681344034A136000BFBD4680BC7047C2
:1013DC003C000020AC00002080B400AF024B1B6826
:1013EC001846BD4680BC7047AC00002080B485B068
:1013FC0000AF78607B6803F00703FB600C4BDB6885
:10140C00BB60BA684FF6FF031340BB60FB681A025F
:10141C00BB68134343F0BF6343F40033BB60044A1F
:10142C00BB68D36000BF1437BD4680BC704700BF9B
:10143C0000ED00E080B400AF044BDB681B0A03F046
:10144C0007031846BD4680BC704700BF00ED00E0A6
:10145C0080B483B000AF0346FB7197F90730002BC3
:10146C000BDBFB7903F01F02064997F907305B0988
:10147C00012000FA02F241F8232000BF0C37BD46D0
:10148C0080BC704700E100E080B483B000AF03463D
:10149C003960FB7197F90730002B0ADB3B68DAB235
:1014AC000C4997F907301201D2B20B4483F8002390
:1014BC000AE03B68DAB20849FB7903F00F03043BFE
:1014CC001201D2B20B441A7600BF0C37BD4680BC59
:1014DC00704700BF00E100E000ED00E080B489B08F
:1014EC0000AFF860B9607A60FB6803F00703FB613A
:1014FC00FB69C3F10703042B28BF0423BB61FB6901
:10150C000433062B02D9FB69033B00E000237B610B
:10151C004FF0FF32BB6902FA03F3DA43BB681A409F
:10152C007B699A404FF0FF317B6901FA03F3D94391
:10153C007B680B40134318462437BD4680BC70476C
:10154C0080B582B000AF78607B68013BB3F1807FDF
:10155C0001D301230FE00A4A7B68013B53600F2142
:10156C004FF0FF30FFF790FF054B00229A60044BC1
:10157C0007221A60002318460837BD4680BD00BFFD
:10158C0010E000E080B582B000AF78607868FFF7BB
:10159C002DFF00BF0837BD4680BD80B586B000AFBB
:1015AC000346B9607A60FB7300237B61FFF742FF4F
:1015BC0078617A68B9687869FFF790FF024697F905
:1015CC000F3011461846FFF75FFF00BF1837BD46B6
:1015DC0080BD80B582B000AF0346FB7197F9073030
:1015EC001846FFF735FF00BF0837BD4680BD80B5F4
:1015FC0082B000AF78607868FFF7A2FF0346184608
:10160C000837BD4680BD000080B48BB000AF786059
:10161C00396000237B6200233B6248E101227B6A34
:10162C0002FA03F3FB613B681B68FA691340BB6168
:10163C00BA69FB699A4240F037813B685B68A34A00
:10164C0093425ED0A14A934275D8A14A934258D096
:10165C009F4A93426FD89F4A934252D09D4A9342DD
:10166C0069D89D4A93424CD09B4A934263D89B4A7B
:10167C00934246D0994A93425DD8122B2AD8122B0A
:10168C0059D801A252F823F00F170008E9160008E8
:10169C00FB1600083D170008431700084317000805
:1016AC0043170008431700084317000843170008A6
:1016BC004317000843170008431700084317000896
:1016CC00431700084317000843170008F1160008D9
:1016DC0005170008824A934213D02CE03B68DB6864
:1016EC003B6229E03B68DB6804333B6224E03B68E7
:1016FC00DB6808333B621FE03B68DB680C333B6202
:10170C001AE03B689B68002B02D104233B6213E078
:10171C003B689B68012B05D108233B627B68FA6907
:10172C001A6109E008233B627B68FA695A6103E09D
:10173C0000233B6200E000BFBB69FF2B01D87B6834
:10174C0001E07B6804337B61BB69FF2B02D87B6AA9
:10175C009B0002E07B6A083B9B003B617B691A683B
:10176C000F213B6901FA03F3DB431A40396A3B69E9
:10177C0001FA03F31A437B691A603B685B6803F058
:10178C008053002B00F09080564B9B69554A43F0D8
:10179C0001039361534B9B6903F00103BB60BB686E
:1017AC00514A7B6A9B08023352F82330FB607B6AF8
:1017BC0003F003039B000F2202FA03F3DB43FA68E6
:1017CC001340FB607B68494A93420DD07B68484AC2
:1017DC00934207D07B68474A934201D1022304E02D
:1017EC00032302E0012300E000237A6A02F00302E3
:1017FC0092009340FA681343FB603B497B6A9B0859
:10180C000233FA6841F823203B685B6803F48013C9
:10181C00002B06D0384B9A683749BB6913438B6051
:10182C0006E0354B9A68BB69DB43334913408B6048
:10183C003B685B6803F40013002B06D02E4BDA6870
:10184C002D49BB691343CB6006E02B4BDA68BB69AF
:10185C00DB4329491340CB603B685B6803F40033DE
:10186C00002B06D0244B5A682349BB6913434B60A9
:10187C0006E0214B5A68BB69DB431F4913404B60A0
:10188C003B685B6803F48033002B06D01A4B1A6854
:10189C001949BB6913430B6006E0174B1A68BB6907
:1018AC00DB43154913400B607B6A01337B623B6859
:1018BC001A687B6A22FA03F3002B7FF4AFAE00BFE9
:1018CC0000BF2C37BD4680BC704700BF00003210F3
:1018DC000000311000002210000021100000121036
:1018EC0000001110001002400000014000080140EF
:1018FC00000C0140001001400004014080B483B092
:10190C0000AF78600B467B8013467B707B78002B96
:10191C0003D07A887B681A6103E07B881A047B68A1
:10192C001A6100BF0C37BD4680BC704780B586B0CD
:10193C0000AF78607B68002B01D101236CE27B68DF
:10194C001B6803F00103002B00F08780924B5B684F
:10195C0003F00C03042B0CD08F4B5B6803F00C03CF
:10196C00082B12D18C4B5B6803F48033B3F5803FAA
:10197C000BD1894B1B6803F40033002B6CD07B68B4
:10198C005B68002B68D1012346E27B685B68B3F58A
:10199C00803F06D1804B1B687F4A43F48033136031
:1019AC002EE07B685B68002B0CD17B4B1B687A4A62
:1019BC0023F480331360784B1B68774A23F480231D
:1019CC0013601DE07B685B68B3F5A02F0CD1724BE4
:1019DC001B68714A43F4802313606F4B1B686E4A7B
:1019EC0043F4803313600BE06B4B1B686A4A23F49F
:1019FC0080331360684B1B68674A23F480231360A1
:101A0C007B685B68002B13D0FFF7E6FC386108E0BD
:101A1C00FFF7E2FC02463B69D31A642B01D903237E
:101A2C00FAE15D4B1B6803F40033002BF0D014E09B
:101A3C00FFF7D2FC386108E0FFF7CEFC02463B69A9
:101A4C00D31A642B01D90323E6E1534B1B6803F42F
:101A5C000033002BF0D100E000BF7B681B6803F063
:101A6C000203002B63D04C4B5B6803F00C03002B80
:101A7C000BD0494B5B6803F00C03082B1CD1464B75
:101A8C005B6803F48033002B16D1434B1B6803F0C7
:101A9C000203002B05D07B681B69012B01D00123AD
:101AAC00BAE13D4B1B6823F0F8027B685B69DB00F5
:101ABC00394913430B603AE07B681B69002B20D03B
:101ACC00364B01221A60FFF787FC386108E0FFF7FC
:101ADC0083FC02463B69D31A022B01D903239BE1F9
:101AEC002D4B1B6803F00203002BF0D02A4B1B6814
:101AFC0023F0F8027B685B69DB00274913430B601A
:101B0C0015E0264B00221A60FFF766FC386108E0EE
:101B1C00FFF762FC02463B69D31A022B01D903235F
:101B2C007AE11D4B1B6803F00203002BF0D17B689C
:101B3C001B6803F00803002B3AD07B689B69002BD1
:101B4C0019D0174B01221A60FFF746FC386108E0E8
:101B5C00FFF742FC02463B69D31A022B01D903233F
:101B6C005AE10D4B5B6A03F00203002BF0D001200D
:101B7C0000F09AFA1CE00A4B00221A60FFF72CFCCA
:101B8C0038610FE0FFF728FC02463B69D31A022BA1
:101B9C0008D9032340E100BF00100240000042427C
:101BAC00800442429E4B5B6A03F00203002BE9D196
:101BBC007B681B6803F00403002B00F0A680002355
:101BCC00FB75974BDB6903F08053002B0DD1944BC5
:101BDC00DB69934A43F08053D361914BDB6903F08B
:101BEC008053BB60BB680123FB758E4B1B6803F4F1
:101BFC008073002B18D18B4B1B688A4A43F480737B
:101C0C001360FFF7E9FB386108E0FFF7E5FB0246DC
:101C1C003B69D31A642B01D90323FDE0814B1B686C
:101C2C0003F48073002BF0D07B68DB68012B06D1AA
:101C3C007B4B1B6A7A4A43F0010313622DE07B68ED
:101C4C00DB68002B0CD1764B1B6A754A23F0010321
:101C5C001362734B1B6A724A23F0040313621CE079
:101C6C007B68DB68052B0CD16D4B1B6A6C4A43F00F
:101C7C00040313626A4B1B6A694A43F00103136243
:101C8C000BE0674B1B6A664A23F001031362644B3B
:101C9C001B6A634A23F0040313627B68DB68002B26
:101CAC0015D0FFF799FB38610AE0FFF795FB024668
:101CBC003B69D31A41F28832934201D90323ABE03A
:101CCC00574B1B6A03F00203002BEED014E0FFF716
:101CDC0083FB38610AE0FFF77FFB02463B69D31AAE
:101CEC0041F28832934201D9032395E04C4B1B6A95
:101CFC0003F00203002BEED1FB7D012B05D1484BE9
:101D0C00DB69474A23F08053D3617B68DB69002B86
:101D1C0000F08180424B5B6803F00C03082B61D010
:101D2C007B68DB69022B46D13F4B00221A60FFF720
:101D3C0053FB386108E0FFF74FFB02463B69D31AAF
:101D4C00022B01D9032367E0354B1B6803F00073AA
:101D5C00002BF0D17B681B6AB3F5803F08D1304B68
:101D6C005B6823F400327B689B682D4913434B60FE
:101D7C002B4B5B6823F474127B68196A7B685B6A73
:101D8C000B43274913434B60274B01221A60FFF783
:101D9C0023FB386108E0FFF71FFB02463B69D31AAF
:101DAC00022B01D9032337E01D4B1B6803F0007392
:101DBC00002BF0D02FE01C4B00221A60FFF70CFB1D
:101DCC00386108E0FFF708FB02463B69D31A022B87
:101DDC0001D9032320E0124B1B6803F00073002B86
:101DEC00F0D118E07B68DB69012B01D1012313E0F2
:101DFC000B4B5B68FB60FB6803F480327B681B6AEF
:101E0C009A4206D1FB6803F470127B685B6A9A42B3
:101E1C0001D0012300E0002318461837BD4680BDD1
:101E2C0000100240007000406000424280B584B057
:101E3C0000AF786039607B68002B01D10123D0E0C2
:101E4C006A4B1B6803F007033A689A4210D9674B38
:101E5C001B6823F0070265493B6813430B60634B17
:101E6C001B6803F007033A689A4201D00123B8E0DB
:101E7C007B681B6803F00203002B20D07B681B6877
:101E8C0003F00403002B05D0594B5B68584A43F40C
:101E9C00E06353607B681B6803F00803002B05D0DC
:101EAC00534B5B68524A43F460535360504B5B682E
:101EBC0023F0F0027B689B684D4913434B607B68B1
:101ECC001B6803F00103002B40D07B685B68012B7F
:101EDC0007D1474B1B6803F40033002B15D10123AA
:101EEC007FE07B685B68022B07D1414B1B6803F0DA
:101EFC000073002B09D1012373E03D4B1B6803F0E9
:101F0C000203002B01D101236BE0394B5B6823F0FA
:101F1C0003027B685B68364913434B60FFF75CFA3E
:101F2C00F8600AE0FFF758FA0246FB68D31A41F250
:101F3C008832934201D9032353E02D4B5B6803F0A5
:101F4C000C027B685B689B009A42EBD1274B1B68A9
:101F5C0003F007033A689A4210D2244B1B6823F013
:101F6C00070222493B6813430B60204B1B6803F0AC
:101F7C0007033A689A4201D0012332E07B681B6860
:101F8C0003F00403002B08D0194B5B6823F4E062C8
:101F9C007B68DB68164913434B607B681B6803F056
:101FAC000803002B09D0124B5B6823F460527B684A
:101FBC001B69DB000E4913434B6000F021F802460D
:101FCC000B4B5B681B0903F00F030A49CB5C22FA2D
:101FDC0003F3094A1360094B1B681846FFF7BAF95B
:101FEC00002318461037BD4680BD00BF00200240BC
:101FFC0000100240302A0008340000203800002075
:10200C0080B487B000AF0023FB600023BB600023CB
:10201C007B6100237B6000233B611E4B5B68FB6094
:10202C00FB6803F00C03042B02D0082B03D027E031
:10203C00194B3B6127E0FB689B0C03F00F03174A1D
:10204C00D35C7B60FB6803F48033002B10D0114B06
:10205C005B685B0C03F00103114AD35CBB607B68CB
:10206C000D4A02FB03F2BB68B2FBF3F37B6104E0A5
:10207C007B680C4A02FB03F37B617B693B6102E0EA
:10208C00054B3B6100BF3B6918461C37BD4680BC05
:10209C00704700BF0010024000127A00402A00086E
:1020AC00502A000800093D0080B485B000AF78606C
:1020BC000A4B1B680A4AA2FB03235B0A7A6802FBE1
:1020CC0003F3FB6000BFFB685A1EFA60002BF9D1CA
:1020DC0000BF00BF1437BD4680BC704734000020E1
:1020EC00D34D621080B582B000AF78607B68002B56
:1020FC0001D1012341E07B6893F83D30DBB2002B2A
:10210C0006D17B68002283F83C207868FFF78AF8B8
:10211C007B68022283F83D207B681A687B68043355
:10212C001946104600F06EFA7B68012283F84620AF
:10213C007B68012283F83E207B68012283F83F20D4
:10214C007B68012283F840207B68012283F84120C0
:10215C007B68012283F842207B68012283F84320AC
:10216C007B68012283F844207B68012283F8452098
:10217C007B68012283F83D20002318460837BD46B2
:10218C0080BD000080B485B000AF78607B6893F8A8
:10219C003D30DBB2012B01D0012335E07B680222FC
:1021AC0083F83D207B681B68DA687B681B6842F00B
:1021BC000102DA607B681B68164A934209D07B687F
:1021CC001B68B3F1804F04D07B681B68124A9342A2
:1021DC0011D17B681B689B6803F00703FB60FB68ED
:1021EC00062B10D07B681B681A687B681B6842F052
:1021FC0001021A6007E07B681B681A687B681B6821
:10220C0042F001021A60002318461437BD4680BC08
:10221C00704700BF002C01400004004080B582B024
:10222C0000AF78607B681B681B6903F00203022B0C
:10223C0022D17B681B68DB6803F00203022B1BD1E5
:10224C007B681B686FF002021A617B6801221A77A7
:10225C007B681B689B6903F00303002B03D0786831
:10226C0000F0B4F905E0786800F0A7F9786800F0A0
:10227C00B6F97B6800221A777B681B681B6903F030
:10228C000403042B22D17B681B68DB6803F0040376
:10229C00042B1BD17B681B686FF004021A617B68EE
:1022AC0002221A777B681B689B6903F44073002B2E
:1022BC0003D0786800F08AF905E0786800F07DF9C1
:1022CC00786800F08CF97B6800221A777B681B68B1
:1022DC001B6903F00803082B22D17B681B68DB68A1
:1022EC0003F00803082B1BD17B681B686FF00802F6
:1022FC001A617B6804221A777B681B68DB6903F020
:10230C000303002B03D0786800F060F905E07868CF
:10231C0000F053F9786800F062F97B6800221A77B4
:10232C007B681B681B6903F01003102B22D17B68A0
:10233C001B68DB6803F01003102B1BD17B681B6838
:10234C006FF010021A617B6808221A777B681B6891
:10235C00DB6903F44073002B03D0786800F036F986
:10236C0005E0786800F029F9786800F038F97B68A6
:10237C0000221A777B681B681B6903F00103012B91
:10238C000ED17B681B68DB6803F00103012B07D1BE
:10239C007B681B686FF001021A617868FEF700FF1A
:1023AC007B681B681B6903F08003802B0ED17B6854
:1023BC001B68DB6803F08003802B07D17B681B68EC
:1023CC006FF080021A61786800F06BFA7B681B680A
:1023DC001B6903F04003402B0ED17B681B68DB6844
:1023EC0003F04003402B07D17B681B686FF0400261
:1023FC001A61786800F0FCF87B681B681B6903F0B5
:10240C002003202B0ED17B681B68DB6803F02003B4
:10241C00202B07D17B681B686FF020021A6178684B
:10242C0000F036FA00BF0837BD4680BD80B584B0D9
:10243C0000AF786039600023FB737B6893F83C3005
:10244C00012B01D10223B4E07B68012283F83C20EC
:10245C007B68022283F83D207B681B689B68BB600D
:10246C00BB6823F07703BB60BB6823F47F43BB607E
:10247C007B681B68BA689A603B681B68B3F5005FA1
:10248C003ED0B3F5005F00F28780B3F5805F00F0BB
:10249C008680B3F5805F7FD8702B1AD0702B7BD8D9
:1024AC00602B50D0602B77D8502B3CD0502B73D84E
:1024BC00402B58D0402B6FD8302B64D0302B6BD89E
:1024CC00202B60D0202B67D8002B5CD0102B5AD03F
:1024DC0062E07B6818683B6899683B685A683B689F
:1024EC00DB6800F05EF97B681B689B68BB60BB68AF
:1024FC0043F07703BB607B681B68BA689A604FE057
:10250C007B6818683B6899683B685A683B68DB686D
:10251C0000F047F97B681B689A687B681B6842F47B
:10252C0080429A603CE07B6818683B6859683B685D
:10253C00DB681A4600F0BEF87B681B685021184611
:10254C0000F015F92CE07B6818683B6859683B680B
:10255C00DB681A4600F0DCF87B681B6860211846C3
:10256C0000F005F91CE07B6818683B6859683B680B
:10257C00DB681A4600F09EF87B681B684021184601
:10258C0000F0F5F80CE07B681A683B681B6819468C
:10259C00104600F0ECF803E00123FB7300E000BFF1
:1025AC007B68012283F83D207B68002283F83C2065
:1025BC00FB7B18461037BD4680BD80B483B000AF9E
:1025CC00786000BF0C37BD4680BC704780B483B0C8
:1025DC0000AF786000BF0C37BD4680BC704780B43C
:1025EC0083B000AF786000BF0C37BD4680BC70472D
:1025FC0080B483B000AF786000BF0C37BD4680BCA0
:10260C007047000080B485B000AF786039607B689B
:10261C001B68FB607B68254A934207D07B68B3F14B
:10262C00804F03D07B68224A934208D1FB6823F089
:10263C007003FB603B685B68FA681343FB607B6864
:10264C001A4A934207D07B68B3F1804F03D07B6862
:10265C00174A934208D1FB6823F44073FB603B6834
:10266C00DB68FA681343FB60FB6823F080023B686D
:10267C005B691343FB607B68FA681A603B689A6875
:10268C007B68DA623B681A687B689A627B68074AE7
:10269C00934203D13B681A697B681A637B680122F9
:1026AC005A6100BF1437BD4680BC7047002C0140F6
:1026BC000004004080B487B000AFF860B9607A6065
:1026CC00FB681B6A7B61FB681B6A23F00102FB68D9
:1026DC001A62FB689B693B613B6923F0F0033B6129
:1026EC007B681B013A6913433B617B6923F00A0346
:1026FC007B617A69BB6813437B61FB683A699A61B9
:10270C00FB687A691A6200BF1C37BD4680BC7047F3
:10271C0080B487B000AFF860B9607A60FB681B6A60
:10272C007B61FB681B6A23F01002FB681A62FB6872
:10273C009B693B613B6923F470433B617B681B03E2
:10274C003A6913433B617B6923F0A0037B61BB684F
:10275C001B017A6913437B61FB683A699A61FB68D8
:10276C007A691A6200BF1C37BD4680BC704780B4C2
:10277C0085B000AF786039607B689B68FB60FB6854
:10278C0023F07003FB603A68FB68134343F00703C4
:10279C00FB607B68FA689A6000BF1437BD4680BC4A
:1027AC00704780B487B000AFF860B9607A603B6066
:1027BC00FB689B687B617B6923F47F437B613B688F
:1027CC001A027B681A43BB6813437A6913437B6113
:1027DC00FB687A699A6000BF1C37BD4680BC7047A5
:1027EC0080B485B000AF786039607B6893F83C307A
:1027FC00012B01D1022341E07B68012283F83C20AC
:10280C007B68022283F83D207B681B685B68FB6059
:10281C007B681B689B68BB60FB6823F07003FB60E4
:10282C003B681B68FA681343FB607B681B68FA689B
:10283C005A607B681B68144A934209D07B681B68FA
:10284C00B3F1804F04D07B681B68104A93420CD1C3
:10285C00BB6823F08003BB603B685B68BA681343BA
:10286C00BB607B681B68BA689A607B68012283F83E
:10287C003D207B68002283F83C2000231846143747
:10288C00BD4680BC704700BF002C014000040040D6
:10289C0080B483B000AF786000BF0C37BD4680BCFD
:1028AC00704780B483B000AF786000BF0C37BD4672
:1028BC0080BC704770B500260C4D0D4C641BA410E9
:1028CC00A64209D100F022F800260A4D0A4C641BDE
:1028DC00A410A64205D170BD55F8043B98470136AB
:1028EC00EEE755F8043B98470136F2E7542A000806
:1028FC00542A0008542A0008582A000803460244A7
:10290C00934200D1704703F8011BF9E7F8B500BFFB
:10291C00F8BC08BC9E467047F8B500BFF8BC08BCB4
:04292C009E4670470C
:102930000100000001000000010000000000000094
:102940000000000001000000010000000100000084
:102950000100000001000000000000000100000074
:102960000100000000000000010000000100000064
:102970000100000000000000010000000100000054
:102980000100000001000000000000000100000044
:102990000100000000000000010000000100000034
:1029A0000100000001000000000000000100000024
:1029B0000100000000000000000000000000000016
:1029C0000000000000000000000000000100000006
:1029D00001000000000000000100000001000000F4
:1029E00001000000010000000000000001000000E4
:1029F00001000000000000000100000001000000D4
:102A000001000000010000000000000001000000C3
:102A100001000000000000000100000001000000B3
:102A200001000000010000000000000001000000A3
:102A3000000000000000000001020304060708096E
:102A400002030405060708090A0B0C0D0E0F1010EF
:042A5000010200007F
:042A54003101000844
:042A58000D01000864
:102A5C00000C0140000C0140000C0140000C014036
:102A6C00000C0140000C0140000C0140000C014026
:102A7C00000100020004000800100020004000804B
:102A8C000A0000000024F400100000000100000007
:04000005080012E9F4
:00000001FF
